{
  "_format": "hh-sol-artifact-1",
  "contractName": "TouristRegistry",
  "sourceName": "contracts/TouristRegistry.sol",
  "abi": [
    {
      "anonymous": false,
      "inputs": [
        {
          "indexed": false,
          "internalType": "string",
          "name": "touristId",
          "type": "string"
        },
        {
          "indexed": false,
          "internalType": "string",
          "name": "email",
          "type": "string"
        },
        {
          "indexed": false,
          "internalType": "uint256",
          "name": "timestamp",
          "type": "uint256"
        }
      ],
      "name": "TouristRegistered",
      "type": "event"
    },
    {
      "inputs": [
        {
          "internalType": "string",
          "name": "email",
          "type": "string"
        }
      ],
      "name": "getTouristIdByEmail",
      "outputs": [
        {
          "internalType": "string",
          "name": "",
          "type": "string"
        }
      ],
      "stateMutability": "view",
      "type": "function"
    },
    {
      "inputs": [
        {
          "internalType": "string",
          "name": "touristId",
          "type": "string"
        },
        {
          "internalType": "string",
          "name": "email",
          "type": "string"
        }
      ],
      "name": "registerTourist",
      "outputs": [],
      "stateMutability": "nonpayable",
      "type": "function"
    },
    {
      "inputs": [
        {
          "internalType": "string",
          "name": "touristId",
          "type": "string"
        }
      ],
      "name": "verifyTourist",
      "outputs": [
        {
          "internalType": "bool",
          "name": "valid",
          "type": "bool"
        },
        {
          "internalType": "string",
          "name": "email",
          "type": "string"
        },
        {
          "internalType": "uint256",
          "name": "registeredAt",
          "type": "uint256"
        }
      ],
      "stateMutability": "view",
      "type": "function"
    }
  ],
  "bytecode": "0x608060405234801561001057600080fd5b50610ca0806100206000396000f3fe608060405234801561001057600080fd5b50600436106100415760003560e01c806356e814eb1461004657806378cdb16f14610076578063fdd0f6c8146100a8575b600080fd5b610060600480360381019061005b9190610648565b6100c4565b60405161006d9190610710565b60405180910390f35b610090600480360381019061008b9190610648565b610174565b60405161009f93929190610766565b60405180910390f35b6100c260048036038101906100bd91906107a4565b61030c565b005b60606001826040516100d69190610858565b908152602001604051809103902080546100ef9061089e565b80601f016020809104026020016040519081016040528092919081815260200182805461011b9061089e565b80156101685780601f1061013d57610100808354040283529160200191610168565b820191906000526020600020905b81548152906001019060200180831161014b57829003601f168201915b50505050509050919050565b6000606060008060008560405161018b9190610858565b90815260200160405180910390206040518060800160405290816000820180546101b49061089e565b80601f01602080910402602001604051908101604052809291908181526020018280546101e09061089e565b801561022d5780601f106102025761010080835404028352916020019161022d565b820191906000526020600020905b81548152906001019060200180831161021057829003601f168201915b505050505081526020016001820180546102469061089e565b80601f01602080910402602001604051908101604052809291908181526020018280546102729061089e565b80156102bf5780601f10610294576101008083540402835291602001916102bf565b820191906000526020600020905b8154815290600101906020018083116102a257829003601f168201915b50505050508152602001600282015481526020016003820160009054906101000a900460ff1615151515815250509050806060015181602001518260400151935093509350509193909250565b60008260405161031c9190610858565b908152602001604051809103902060030160009054906101000a900460ff161561037b576040517f08c379a00000000000000000000000000000000000000000000000000000000081526004016103729061091b565b60405180910390fd5b600060018260405161038d9190610858565b908152602001604051809103902080546103a69061089e565b9050146103e8576040517f08c379a00000000000000000000000000000000000000000000000000000000081526004016103df90610987565b60405180910390fd5b60405180608001604052808381526020018281526020014281526020016001151581525060008360405161041c9190610858565b9081526020016040518091039020600082015181600001908161043f9190610b53565b5060208201518160010190816104559190610b53565b506040820151816002015560608201518160030160006101000a81548160ff021916908315150217905550905050816001826040516104949190610858565b908152602001604051809103902090816104ae9190610b53565b507f3683640acb658bc04e387834c80251cb1e2632d10497117d0c65f16598cb7c558282426040516104e293929190610c25565b60405180910390a15050565b6000604051905090565b600080fd5b600080fd5b600080fd5b600080fd5b6000601f19601f8301169050919050565b7f4e487b7100000000000000000000000000000000000000000000000000000000600052604160045260246000fd5b6105558261050c565b810181811067ffffffffffffffff821117156105745761057361051d565b5b80604052505050565b60006105876104ee565b9050610593828261054c565b919050565b600067ffffffffffffffff8211156105b3576105b261051d565b5b6105bc8261050c565b9050602081019050919050565b82818337600083830152505050565b60006105eb6105e684610598565b61057d565b90508281526020810184848401111561060757610606610507565b5b6106128482856105c9565b509392505050565b600082601f83011261062f5761062e610502565b5b813561063f8482602086016105d8565b91505092915050565b60006020828403121561065e5761065d6104f8565b5b600082013567ffffffffffffffff81111561067c5761067b6104fd565b5b6106888482850161061a565b91505092915050565b600081519050919050565b600082825260208201905092915050565b60005b838110156106cb5780820151818401526020810190506106b0565b60008484015250505050565b60006106e282610691565b6106ec818561069c565b93506106fc8185602086016106ad565b6107058161050c565b840191505092915050565b6000602082019050818103600083015261072a81846106d7565b905092915050565b60008115159050919050565b61074781610732565b82525050565b6000819050919050565b6107608161074d565b82525050565b600060608201905061077b600083018661073e565b818103602083015261078d81856106d7565b905061079c6040830184610757565b949350505050565b600080604083850312156107bb576107ba6104f8565b5b600083013567ffffffffffffffff8111156107d9576107d86104fd565b5b6107e58582860161061a565b925050602083013567ffffffffffffffff811115610806576108056104fd565b5b6108128582860161061a565b9150509250929050565b600081905092915050565b600061083282610691565b61083c818561081c565b935061084c8185602086016106ad565b80840191505092915050565b60006108648284610827565b915081905092915050565b7f4e487b7100000000000000000000000000000000000000000000000000000000600052602260045260246000fd5b600060028204905060018216806108b657607f821691505b6020821081036108c9576108c861086f565b5b50919050565b7f546f757269737420494420616c72656164792072656769737465726564000000600082015250565b6000610905601d8361069c565b9150610910826108cf565b602082019050919050565b60006020820190508181036000830152610934816108f8565b9050919050565b7f456d61696c20616c726561647920726567697374657265640000000000000000600082015250565b600061097160188361069c565b915061097c8261093b565b602082019050919050565b600060208201905081810360008301526109a081610964565b9050919050565b60008190508160005260206000209050919050565b60006020601f8301049050919050565b600082821b905092915050565b600060088302610a097fffffffffffffffffffffffffffffffffffffffffffffffffffffffffffffffff826109cc565b610a1386836109cc565b95508019841693508086168417925050509392505050565b6000819050919050565b6000610a50610a4b610a468461074d565b610a2b565b61074d565b9050919050565b6000819050919050565b610a6a83610a35565b610a7e610a7682610a57565b8484546109d9565b825550505050565b600090565b610a93610a86565b610a9e818484610a61565b505050565b5b81811015610ac257610ab7600082610a8b565b600181019050610aa4565b5050565b601f821115610b0757610ad8816109a7565b610ae1846109bc565b81016020851015610af0578190505b610b04610afc856109bc565b830182610aa3565b50505b505050565b600082821c905092915050565b6000610b2a60001984600802610b0c565b1980831691505092915050565b6000610b438383610b19565b9150826002028217905092915050565b610b5c82610691565b67ffffffffffffffff811115610b7557610b7461051d565b5b610b7f825461089e565b610b8a828285610ac6565b600060209050601f831160018114610bbd5760008415610bab578287015190505b610bb58582610b37565b865550610c1d565b601f198416610bcb866109a7565b60005b82811015610bf357848901518255600182019150602085019450602081019050610bce565b86831015610c105784890151610c0c601f891682610b19565b8355505b6001600288020188555050505b505050505050565b60006060820190508181036000830152610c3f81866106d7565b90508181036020830152610c5381856106d7565b9050610c626040830184610757565b94935050505056fea2646970667358221220b033013b899c47985d6b27f38e7ede87276e7d9969f2be5bf9dabc1d26ab00b964736f6c63430008130033",
  "linkReferences": {},
  "deployedLinkReferences": {}
}